:08000000803102288731FD2F39
:100D96007A302100990023008C0121008C01F20198
:100DA600F3018731732786318731732786311530F2
:100DB600F1004B30F000BE30890BDF2EF00BDF2E3A
:100DC600F10BDF2E00328631EA268031022801300F
:100DD60020008C0020008C010000013020008C00D7
:100DE60020008C010000013020008C0020008C01C6
:100DF6000000013020008C0020008C010000013032
:100E060020008C0020008C010000013020008C00A6
:100E160020008C010000013020008C0020008C0195
:100E26000000013020008C0020008C010000013001
:100E360020008C00003220008C0101308C00003232
:100E460020008C0101308C00003220008C01013022
:100E56008C00003220008C0101308C000032200012
:100E66008C0101308C00003220008C0101308C0096
:100E7600003220008C0101308C00003220008C01F1
:100E860001308C0020008C010000013020008C0015
:100E960020008C010000013020008C0020008C0115
:100EA6000000013020008C0020008C010000013081
:100EB60020008C0020008C010000013020008C00F6
:100EC60020008C010000013020008C0020008C01E5
:100ED6000000013020008C0020008C01000008007A
:100EE600013020008C0020008C0100000130200021
:100EF6008C0020008C010000013020008C002000B6
:100F06008C010000013020008C0020008C010000C4
:100F1600013020008C0020008C01000001302000F0
:100F26008C0020008C010000013020008C00200085
:100F36008C010000013020008C0020008C01000094
:100F4600013020008C0020008C01000001302000C0
:100F56008C0020008C010000013020008C00200055
:100F66008C010000013020008C0020008C01000064
:100F7600013020008C0020008C0100000130200090
:100F86008C0020008C010000013020008C00200025
:100F96008C010000013020008C0020008C01000034
:100FA600013020008C00003220008C0101308C00C2
:100FB600003220008C0101308C00003220008C01B0
:100FC60001308C00003220008C0101308C00003290
:100FD60020008C0101308C00003220008C01013091
:100FE6008C00003220008C0101308C000032200081
:0E0FF6008C01080020008631CB2E1B34003405
:020000040001F9
:02000E00E4FF0D
:00000001FF
